{
  "contractName": "Faucet",
  "abi": [
    {
      "inputs": [],
      "stateMutability": "nonpayable",
      "type": "constructor"
    },
    {
      "inputs": [],
      "name": "numOfFunders",
      "outputs": [
        {
          "internalType": "uint256",
          "name": "",
          "type": "uint256"
        }
      ],
      "stateMutability": "view",
      "type": "function",
      "constant": true
    },
    {
      "inputs": [],
      "name": "owner",
      "outputs": [
        {
          "internalType": "address",
          "name": "",
          "type": "address"
        }
      ],
      "stateMutability": "view",
      "type": "function",
      "constant": true
    },
    {
      "stateMutability": "payable",
      "type": "receive",
      "payable": true
    },
    {
      "inputs": [],
      "name": "addFunds",
      "outputs": [],
      "stateMutability": "payable",
      "type": "function",
      "payable": true
    },
    {
      "inputs": [],
      "name": "test1",
      "outputs": [],
      "stateMutability": "nonpayable",
      "type": "function"
    },
    {
      "inputs": [],
      "name": "test2",
      "outputs": [],
      "stateMutability": "nonpayable",
      "type": "function"
    },
    {
      "inputs": [
        {
          "internalType": "uint256",
          "name": "withdrawAmount",
          "type": "uint256"
        }
      ],
      "name": "withdraw",
      "outputs": [],
      "stateMutability": "nonpayable",
      "type": "function"
    },
    {
      "inputs": [],
      "name": "getAllFunders",
      "outputs": [
        {
          "internalType": "address[]",
          "name": "",
          "type": "address[]"
        }
      ],
      "stateMutability": "view",
      "type": "function",
      "constant": true
    },
    {
      "inputs": [
        {
          "internalType": "uint8",
          "name": "index",
          "type": "uint8"
        }
      ],
      "name": "getFunderAtIndex",
      "outputs": [
        {
          "internalType": "address",
          "name": "",
          "type": "address"
        }
      ],
      "stateMutability": "view",
      "type": "function",
      "constant": true
    }
  ],
  "bytecode": "0x608060405234801561001057600080fd5b5033600160006101000a81548173ffffffffffffffffffffffffffffffffffffffff021916908373ffffffffffffffffffffffffffffffffffffffff160217905550610a3f806100616000396000f3fe60806040526004361061007f5760003560e01c80636fbbb55d1161004e5780636fbbb55d1461011f5780638da5cb5b1461014a578063a26759cb14610175578063af7f2c9b1461017f57610086565b80630a93cf331461008b5780632e1a7d4d146100c857806366e41cb7146100f15780636b59084d1461010857610086565b3661008657005b600080fd5b34801561009757600080fd5b506100b260048036038101906100ad9190610688565b6101aa565b6040516100bf919061079a565b60405180910390f35b3480156100d457600080fd5b506100ef60048036038101906100ea919061065f565b6101ea565b005b3480156100fd57600080fd5b50610106610281565b005b34801561011457600080fd5b5061011d610313565b005b34801561012b57600080fd5b506101346103a5565b60405161014191906107b5565b60405180910390f35b34801561015657600080fd5b5061015f6104ea565b60405161016c919061079a565b60405180910390f35b61017d610510565b005b34801561018b57600080fd5b5061019461062f565b6040516101a19190610817565b60405180910390f35b6000600360008360ff16815260200190815260200160002060009054906101000a900473ffffffffffffffffffffffffffffffffffffffff169050919050565b8067016345785d8a0000811115610236576040517f08c379a000000000000000000000000000000000000000000000000000000000815260040161022d906107d7565b60405180910390fd5b3373ffffffffffffffffffffffffffffffffffffffff166108fc839081150290604051600060405180830381858888f1935050505015801561027c573d6000803e3d6000fd5b505050565b600160009054906101000a900473ffffffffffffffffffffffffffffffffffffffff1673ffffffffffffffffffffffffffffffffffffffff163373ffffffffffffffffffffffffffffffffffffffff1614610311576040517f08c379a0000000000000000000000000000000000000000000000000000000008152600401610308906107f7565b60405180910390fd5b565b600160009054906101000a900473ffffffffffffffffffffffffffffffffffffffff1673ffffffffffffffffffffffffffffffffffffffff163373ffffffffffffffffffffffffffffffffffffffff16146103a3576040517f08c379a000000000000000000000000000000000000000000000000000000000815260040161039a906107f7565b60405180910390fd5b565b60606000805467ffffffffffffffff8111156103ea577f4e487b7100000000000000000000000000000000000000000000000000000000600052604160045260246000fd5b6040519080825280602002602001820160405280156104185781602001602082028036833780820191505090505b50905060005b6000548110156104e2576003600082815260200190815260200160002060009054906101000a900473ffffffffffffffffffffffffffffffffffffffff16828281518110610495577f4e487b7100000000000000000000000000000000000000000000000000000000600052603260045260246000fd5b602002602001019073ffffffffffffffffffffffffffffffffffffffff16908173ffffffffffffffffffffffffffffffffffffffff168152505080806104da906108c5565b91505061041e565b508091505090565b600160009054906101000a900473ffffffffffffffffffffffffffffffffffffffff1681565b6000339050600260008273ffffffffffffffffffffffffffffffffffffffff1673ffffffffffffffffffffffffffffffffffffffff16815260200190815260200160002060009054906101000a900460ff1661062c57600080600081548092919061057a906108c5565b9190505590506001600260008473ffffffffffffffffffffffffffffffffffffffff1673ffffffffffffffffffffffffffffffffffffffff16815260200190815260200160002060006101000a81548160ff021916908315150217905550336003600083815260200190815260200160002060006101000a81548173ffffffffffffffffffffffffffffffffffffffff021916908373ffffffffffffffffffffffffffffffffffffffff160217905550505b50565b60005481565b600081359050610644816109db565b92915050565b600081359050610659816109f2565b92915050565b60006020828403121561067157600080fd5b600061067f84828501610635565b91505092915050565b60006020828403121561069a57600080fd5b60006106a88482850161064a565b91505092915050565b60006106bd83836106c9565b60208301905092915050565b6106d28161087c565b82525050565b6106e18161087c565b82525050565b60006106f282610842565b6106fc818561085a565b935061070783610832565b8060005b8381101561073857815161071f88826106b1565b975061072a8361084d565b92505060018101905061070b565b5085935050505092915050565b600061075260238361086b565b915061075d8261093d565b604082019050919050565b600061077560358361086b565b91506107808261098c565b604082019050919050565b610794816108ae565b82525050565b60006020820190506107af60008301846106d8565b92915050565b600060208201905081810360008301526107cf81846106e7565b905092915050565b600060208201905081810360008301526107f081610745565b9050919050565b6000602082019050818103600083015261081081610768565b9050919050565b600060208201905061082c600083018461078b565b92915050565b6000819050602082019050919050565b600081519050919050565b6000602082019050919050565b600082825260208201905092915050565b600082825260208201905092915050565b60006108878261088e565b9050919050565b600073ffffffffffffffffffffffffffffffffffffffff82169050919050565b6000819050919050565b600060ff82169050919050565b60006108d0826108ae565b91507fffffffffffffffffffffffffffffffffffffffffffffffffffffffffffffffff8214156109035761090261090e565b5b600182019050919050565b7f4e487b7100000000000000000000000000000000000000000000000000000000600052601160045260246000fd5b7f43616e6e6f74207769746864726177206d6f7265207468616e20302e3120657460008201527f6865720000000000000000000000000000000000000000000000000000000000602082015250565b7f4f6e6c7920746865206f776e6572206f662074686520636f6e7472616374206360008201527f616e2063616c6c20746869732066756e6374696f6e0000000000000000000000602082015250565b6109e4816108ae565b81146109ef57600080fd5b50565b6109fb816108b8565b8114610a0657600080fd5b5056fea264697066735822122047df9fa0b952937b206d680b70c8396186965e03ef4a0c5118fc1e6343d157fd64736f6c63430008040033",
  "immutableReferences": {},
  "source": "// SPDX-License-Identifier: MIT\r\npragma solidity >=0.4.22 <0.9.0;\r\n\r\ncontract Faucet {\r\n\r\n  uint public numOfFunders;\r\n  address public owner;\r\n\r\n  mapping(address => bool) private funders;\r\n  mapping(uint => address) private lutFunders;\r\n\r\n  constructor () {\r\n    owner = msg.sender;\r\n  }\r\n\r\n  modifier onlyOwner() {\r\n    require(\r\n      msg.sender == owner, \r\n      \"Only the owner of the contract can call this function\"\r\n      );\r\n      _;\r\n  }\r\n\r\n  modifier limitWithdraw(uint withdrawAmount) {\r\n    require(\r\n      withdrawAmount <= 100000000000000000, \r\n      \"Cannot withdraw more than 0.1 ether\"\r\n    );\r\n    _;\r\n  }\r\n \r\n  receive() external payable{}\r\n\r\n  function addFunds() external payable{\r\n    address funder = msg.sender;\r\n\r\n    if(!funders[funder]) {\r\n      uint index = numOfFunders++;\r\n      funders[funder] = true;\r\n      lutFunders[index] = msg.sender;\r\n    }\r\n  }\r\n\r\n\r\n  function test1() external onlyOwner{\r\n    // some stuff only the admin should have access to\r\n  }\r\n\r\n  function test2() external onlyOwner{\r\n  // some stuff only the admin should have access to\r\n  }\r\n\r\n\r\n  function withdraw (uint withdrawAmount) external limitWithdraw(withdrawAmount){\r\n    \r\n    payable(msg.sender).transfer(withdrawAmount);\r\n\r\n  } \r\n\r\n  function getAllFunders() external view returns (address[] memory) {\r\n    address[] memory _funders = new address[](numOfFunders);\r\n\r\n    for(uint i = 0; i < numOfFunders; i ++) {\r\n      _funders[i] = lutFunders[i];\r\n    }\r\n\r\n    return _funders;\r\n  }\r\n\r\n\r\n  function getFunderAtIndex(uint8 index) external view  returns(address) {\r\n    return lutFunders[index];\r\n  }\r\n\r\n}\r\n\r\n\r\n// const instance = await Faucet.deployed()\r\n// instance.addFunds({ from: accounts[0], value: \"100000000000000000\"})\r\n// instance.addFunds({ from: accounts[1], value: \"2000000000000000000\"})\r\n\r\n\r\n// instance.withdraw(\"100000000000000000\", { from: accounts[1]})",
  "sourcePath": "C:\\Users\\Dayo\\Desktop\\blockchain\\faucet\\contracts\\FaucetContract.sol",
  "compiler": {
    "name": "solc",
    "version": "0.8.4+commit.c7e474f2.Emscripten.clang"
  },
  "schemaVersion": "3.4.13",
  "updatedAt": "2023-05-01T13:20:56.393Z",
  "networkType": "ethereum",
  "devdoc": {
    "kind": "dev",
    "methods": {},
    "version": 1
  },
  "userdoc": {
    "kind": "user",
    "methods": {},
    "version": 1
  }
}