{
  "contractName": "Faucet",
  "abi": [
    {
      "inputs": [],
      "name": "numOfFunders",
      "outputs": [
        {
          "internalType": "uint256",
          "name": "",
          "type": "uint256"
        }
      ],
      "stateMutability": "view",
      "type": "function",
      "constant": true
    },
    {
      "stateMutability": "payable",
      "type": "receive",
      "payable": true
    },
    {
      "inputs": [],
      "name": "addFunds",
      "outputs": [],
      "stateMutability": "payable",
      "type": "function",
      "payable": true
    },
    {
      "inputs": [
        {
          "internalType": "uint256",
          "name": "withdrawAmount",
          "type": "uint256"
        }
      ],
      "name": "withdraw",
      "outputs": [],
      "stateMutability": "nonpayable",
      "type": "function"
    },
    {
      "inputs": [],
      "name": "getAllFunders",
      "outputs": [
        {
          "internalType": "address[]",
          "name": "",
          "type": "address[]"
        }
      ],
      "stateMutability": "view",
      "type": "function",
      "constant": true
    },
    {
      "inputs": [
        {
          "internalType": "uint8",
          "name": "index",
          "type": "uint8"
        }
      ],
      "name": "getFunderAtIndex",
      "outputs": [
        {
          "internalType": "address",
          "name": "",
          "type": "address"
        }
      ],
      "stateMutability": "view",
      "type": "function",
      "constant": true
    }
  ],
  "bytecode": "0x608060405234801561001057600080fd5b506107d6806100206000396000f3fe60806040526004361061004e5760003560e01c80630a93cf331461005a5780632e1a7d4d146100975780636fbbb55d146100c0578063a26759cb146100eb578063af7f2c9b146100f557610055565b3661005557005b600080fd5b34801561006657600080fd5b50610081600480360381019061007c91906104b1565b610120565b60405161008e91906105a0565b60405180910390f35b3480156100a357600080fd5b506100be60048036038101906100b99190610488565b610160565b005b3480156100cc57600080fd5b506100d56101f5565b6040516100e291906105bb565b60405180910390f35b6100f361033a565b005b34801561010157600080fd5b5061010a610458565b60405161011791906105fd565b60405180910390f35b6000600260008360ff16815260200190815260200160002060009054906101000a900473ffffffffffffffffffffffffffffffffffffffff169050919050565b67016345785d8a00008111156101ab576040517f08c379a00000000000000000000000000000000000000000000000000000000081526004016101a2906105dd565b60405180910390fd5b3373ffffffffffffffffffffffffffffffffffffffff166108fc829081150290604051600060405180830381858888f193505050501580156101f1573d6000803e3d6000fd5b5050565b60606000805467ffffffffffffffff81111561023a577f4e487b7100000000000000000000000000000000000000000000000000000000600052604160045260246000fd5b6040519080825280602002602001820160405280156102685781602001602082028036833780820191505090505b50905060005b600054811015610332576002600082815260200190815260200160002060009054906101000a900473ffffffffffffffffffffffffffffffffffffffff168282815181106102e5577f4e487b7100000000000000000000000000000000000000000000000000000000600052603260045260246000fd5b602002602001019073ffffffffffffffffffffffffffffffffffffffff16908173ffffffffffffffffffffffffffffffffffffffff1681525050808061032a906106ab565b91505061026e565b508091505090565b6000339050600160008273ffffffffffffffffffffffffffffffffffffffff1673ffffffffffffffffffffffffffffffffffffffff16815260200190815260200160002060009054906101000a900460ff166104555760008060008154809291906103a4906106ab565b91905055905060018060008473ffffffffffffffffffffffffffffffffffffffff1673ffffffffffffffffffffffffffffffffffffffff16815260200190815260200160002060006101000a81548160ff021916908315150217905550336002600083815260200190815260200160002060006101000a81548173ffffffffffffffffffffffffffffffffffffffff021916908373ffffffffffffffffffffffffffffffffffffffff160217905550505b50565b60005481565b60008135905061046d81610772565b92915050565b60008135905061048281610789565b92915050565b60006020828403121561049a57600080fd5b60006104a88482850161045e565b91505092915050565b6000602082840312156104c357600080fd5b60006104d184828501610473565b91505092915050565b60006104e683836104f2565b60208301905092915050565b6104fb81610662565b82525050565b61050a81610662565b82525050565b600061051b82610628565b6105258185610640565b935061053083610618565b8060005b8381101561056157815161054888826104da565b975061055383610633565b925050600181019050610534565b5085935050505092915050565b600061057b602383610651565b915061058682610723565b604082019050919050565b61059a81610694565b82525050565b60006020820190506105b56000830184610501565b92915050565b600060208201905081810360008301526105d58184610510565b905092915050565b600060208201905081810360008301526105f68161056e565b9050919050565b60006020820190506106126000830184610591565b92915050565b6000819050602082019050919050565b600081519050919050565b6000602082019050919050565b600082825260208201905092915050565b600082825260208201905092915050565b600061066d82610674565b9050919050565b600073ffffffffffffffffffffffffffffffffffffffff82169050919050565b6000819050919050565b600060ff82169050919050565b60006106b682610694565b91507fffffffffffffffffffffffffffffffffffffffffffffffffffffffffffffffff8214156106e9576106e86106f4565b5b600182019050919050565b7f4e487b7100000000000000000000000000000000000000000000000000000000600052601160045260246000fd5b7f43616e6e6f74207769746864726177206d6f7265207468616e20302e3120657460008201527f6865720000000000000000000000000000000000000000000000000000000000602082015250565b61077b81610694565b811461078657600080fd5b50565b6107928161069e565b811461079d57600080fd5b5056fea2646970667358221220a092285668e5bffd5d083e70ab69bee8f59164291ebafe834174a1a7db85e41c64736f6c63430008040033",
  "immutableReferences": {},
  "source": "// SPDX-License-Identifier: MIT\r\npragma solidity >=0.4.22 <0.9.0;\r\n\r\ncontract Faucet {\r\n\r\n  uint public numOfFunders;\r\n  mapping(address => bool) private funders;\r\n  mapping(uint => address) private lutFunders;\r\n\r\n  receive() external payable{}\r\n\r\n  function addFunds() external payable{\r\n    address funder = msg.sender;\r\n\r\n    if(!funders[funder]) {\r\n      uint index = numOfFunders++;\r\n      funders[funder] = true;\r\n      lutFunders[index] = msg.sender;\r\n    }\r\n  }\r\n\r\n  function withdraw (uint withdrawAmount) external {\r\n    require(withdrawAmount <= 100000000000000000, \"Cannot withdraw more than 0.1 ether\");\r\n    payable(msg.sender).transfer(withdrawAmount);\r\n\r\n  } \r\n\r\n  function getAllFunders() external view returns (address[] memory) {\r\n    address[] memory _funders = new address[](numOfFunders);\r\n\r\n    for(uint i = 0; i < numOfFunders; i ++) {\r\n      _funders[i] = lutFunders[i];\r\n    }\r\n\r\n    return _funders;\r\n  }\r\n\r\n\r\n  function getFunderAtIndex(uint8 index) external view  returns(address) {\r\n    return lutFunders[index];\r\n  }\r\n\r\n}\r\n\r\n\r\n// const instance = await Faucet.deployed()\r\n// instance.addFunds({ from: accounts[0], value: \"2000000000000000000\"})\r\n// instance.addFunds({ from: accounts[1], value: \"2000000000000000000\"})\r\n\r\n\r\n// instance.withdraw(\"500000000000000000\", { from: accounts[1]})",
  "sourcePath": "C:\\Users\\Dayo\\Desktop\\blockchain\\faucet\\contracts\\FaucetContract.sol",
  "compiler": {
    "name": "solc",
    "version": "0.8.4+commit.c7e474f2.Emscripten.clang"
  },
  "schemaVersion": "3.4.13",
  "updatedAt": "2023-05-01T11:08:57.902Z",
  "networkType": "ethereum",
  "devdoc": {
    "kind": "dev",
    "methods": {},
    "version": 1
  },
  "userdoc": {
    "kind": "user",
    "methods": {},
    "version": 1
  }
}