{
  "contractName": "Faucet",
  "abi": [
    {
      "inputs": [],
      "name": "numOfFunders",
      "outputs": [
        {
          "internalType": "uint256",
          "name": "",
          "type": "uint256"
        }
      ],
      "stateMutability": "view",
      "type": "function",
      "constant": true
    },
    {
      "stateMutability": "payable",
      "type": "receive",
      "payable": true
    },
    {
      "inputs": [],
      "name": "addFunds",
      "outputs": [],
      "stateMutability": "payable",
      "type": "function",
      "payable": true
    },
    {
      "inputs": [
        {
          "internalType": "uint8",
          "name": "index",
          "type": "uint8"
        }
      ],
      "name": "getFunderAtIndex",
      "outputs": [
        {
          "internalType": "address",
          "name": "",
          "type": "address"
        }
      ],
      "stateMutability": "view",
      "type": "function",
      "constant": true
    }
  ],
  "bytecode": "0x608060405234801561001057600080fd5b5061030b806100206000396000f3fe6080604052600436106100385760003560e01c80630a93cf3314610044578063a26759cb14610081578063af7f2c9b1461008b5761003f565b3661003f57005b600080fd5b34801561005057600080fd5b5061006b60048036038101906100669190610180565b6100b6565b60405161007891906101c7565b60405180910390f35b6100896100f6565b005b34801561009757600080fd5b506100a0610165565b6040516100ad91906101e2565b60405180910390f35b6000600160008360ff16815260200190815260200160002060009054906101000a900473ffffffffffffffffffffffffffffffffffffffff169050919050565b600080600081548092919061010a90610246565b919050559050336001600083815260200190815260200160002060006101000a81548173ffffffffffffffffffffffffffffffffffffffff021916908373ffffffffffffffffffffffffffffffffffffffff16021790555050565b60005481565b60008135905061017a816102be565b92915050565b60006020828403121561019257600080fd5b60006101a08482850161016b565b91505092915050565b6101b2816101fd565b82525050565b6101c18161022f565b82525050565b60006020820190506101dc60008301846101a9565b92915050565b60006020820190506101f760008301846101b8565b92915050565b60006102088261020f565b9050919050565b600073ffffffffffffffffffffffffffffffffffffffff82169050919050565b6000819050919050565b600060ff82169050919050565b60006102518261022f565b91507fffffffffffffffffffffffffffffffffffffffffffffffffffffffffffffffff8214156102845761028361028f565b5b600182019050919050565b7f4e487b7100000000000000000000000000000000000000000000000000000000600052601160045260246000fd5b6102c781610239565b81146102d257600080fd5b5056fea2646970667358221220f145b2b3ea21653ba307a24b326ba3a827e9425de9635931bbba2e3ecb21b7dd64736f6c63430008040033",
  "immutableReferences": {},
  "source": "// SPDX-License-Identifier: MIT\r\npragma solidity >=0.4.22 <0.9.0;\r\n\r\ncontract Faucet {\r\n\r\n  uint public numOfFunders;\r\n  mapping(uint => address) private funders;\r\n\r\n  receive() external payable{}\r\n\r\n  function addFunds() external payable{\r\n    uint index = numOfFunders++;\r\n    funders[index] = msg.sender;\r\n  }\r\n\r\n\r\n  function getFunderAtIndex(uint8 index) external view  returns(address) {\r\n    return funders[index];\r\n  }\r\n\r\n  \r\n}\r\n\r\n\r\n// const instance = Faucet.deployed()\r\n// instance.addFunds({ from: accounts[0], value: \"2000000000\"})\r\n// instance.addFunds({ from: accounts[1], value: \"2000000000\"})",
  "sourcePath": "C:\\Users\\Dayo\\Desktop\\blockchain\\faucet\\contracts\\FaucetContract.sol",
  "compiler": {
    "name": "solc",
    "version": "0.8.4+commit.c7e474f2.Emscripten.clang"
  },
  "schemaVersion": "3.4.13",
  "updatedAt": "2023-04-29T23:16:05.284Z",
  "networkType": "ethereum",
  "devdoc": {
    "kind": "dev",
    "methods": {},
    "version": 1
  },
  "userdoc": {
    "kind": "user",
    "methods": {},
    "version": 1
  }
}