{
  "contractName": "Faucet",
  "abi": [
    {
      "stateMutability": "payable",
      "type": "receive",
      "payable": true
    },
    {
      "inputs": [],
      "name": "addFunds",
      "outputs": [],
      "stateMutability": "payable",
      "type": "function",
      "payable": true
    }
  ],
  "bytecode": "0x6080604052348015600f57600080fd5b50606a80601d6000396000f3fe608060405260043610601f5760003560e01c8063a26759cb14602a576025565b36602557005b600080fd5b60306032565b005b56fea26469706673582212201715e6329e3803dd0ddc5187d0bbb8057b8de7ac3c543e39ea42709f1626005d64736f6c63430008040033",
  "immutableReferences": {},
  "source": "// SPDX-License-Identifier: MIT\r\npragma solidity >=0.4.22 <0.9.0;\r\n\r\ncontract Faucet {\r\n\r\n  //this is a special function \r\n  //it's called when you make a tx that dosen't specify\r\n\r\n  receive() external payable{}\r\n\r\n  function addFunds() external payable{}\r\n}",
  "sourcePath": "C:\\Users\\Dayo\\Desktop\\blockchain\\faucet\\contracts\\FaucetContract.sol",
  "compiler": {
    "name": "solc",
    "version": "0.8.4+commit.c7e474f2.Emscripten.clang"
  },
  "schemaVersion": "3.4.13",
  "updatedAt": "2023-04-29T14:08:52.000Z",
  "networkType": "ethereum",
  "devdoc": {
    "kind": "dev",
    "methods": {},
    "version": 1
  },
  "userdoc": {
    "kind": "user",
    "methods": {},
    "version": 1
  }
}